:10000000005F00000004000700060007000C000C61
:10001000000300040000333F0000330000004E33B3
:100020000000004E4200004E4200004E330000002F
:100030004E33000000332000003320000033200046
:100040000033200000332000003320000048FF0070
:1000500000220003200000300000300000300000CB
:100060002200002000033051FF420000080022203F
:1000700000002051FF4200002000080C454A664A5B
:10008000000867130000084E0001D100000C006753
:1000900010004A100010004E000120000820454AC0
:1000A0002000002000001000100010003620280062
:1000B00000200001385251FF080020000138525141
:1000C000FF33300000330000003300000033000035
:1000D00000330000003337000042200000220020DF
:1000E0004E00040C00006752536C4A673335000021
:1000F0000C00000867000C000008672000002200C8
:10010000204E00034A66422C4200002ADB00FF30EA
:100110003000000280670C00006752DD000060E1E3
:10012000E3BA6D2A4A672E00003033000026000033
:10013000E3422200004E0006200030202C00003850
:1001400031330000302EBE67023F0000382E3300EE
:10015000004E2760BD6E2038303300002EBE66BDD5
:100160006E22000020000022000251FF20003020FB
:100170002C000038F1330000302EBE66BD6E2038F2
:10018000F03300002EBE66BD6E333F00002200FF3C
:100190002000082000001251FF4E000C33360000F2
:1001A0004E000C2000002200204E00034A67333A24
:1001B00000006033330000260000E3E34222000029
:1001C0004E00074A66333400004200004E000040F3
:1001D00023706F3300002F2A0000260020422E00DB
:1001E000002200004E00074A662200200C55566689
:1001F0004E00042E00000CFFFF672E0000224E2050
:10020000000024060000D14E00044A662C4E000374
:100210004A66283A000200FF67424E536C2E0000E7
:100220004E42280001DA53664E48FE2A000060481C
:10023000FE424200002C2300200600002300204E36
:1002400000040C00006F010C000067002E00004C41
:10025000FF4E42200020D100040C000067D1000CAA
:100260000C000067D1000C0C0000672E00004E331C
:100270000000003300000033000000330000004E97
:10028000E32A0000260020422200004E00074A66B2
:10029000012200204E00040CFFFF66012200204EC8
:1002A0004200003000004200004E00041100003EF9
:1002B0000000020066004A67002200983000000833
:1002C0000067536E4E000B330000004E000B4200DF
:1002D000003E020067604200004E00044A6733009F
:1002E000000032E70000330000330000001100007E
:1002F0004E000A02FF672E000060FE310000310050
:100300000031000031000031000031000011000018
:10031000420042004E00034A66FE220020310300E4
:10032000D30000310031003032310002FF3100349F
:1003300031000200FF84C43100110011003100229D
:100340000020D300002824674E0005450028000047
:100350005036344230864A67800034483434545230
:10036000000C01006E536E2200203800674E00051D
:1003700060582E000060FD2E000060FD48FE240045
:10038000006048FE2400006048FE240000204E006B
:10039000044A66FD420000420000110011001100F5
:1003A0001100E22100300036004A006730003600BC
:1003B000883100480200FF883100483100310031A7
:1003C000004A006FFF0C0000660C0000670031005F
:1003D0000060000C00006C004A0066430030000220
:1003E00000FF32000200FFD20060545454536D34B9
:1003F000B4006634B4006634B4006DB46C94006626
:10040000310000423686004238480200FF423A007E
:100410006030000200FFD0003A004A00673A00B0A6
:100420006F3494003100424242380036003A0022D4
:100430000030000200FF0C000066E20C0000665471
:1004400060E144330000330000480C0000663300D4
:1004500000603300000C000067034200004E0009FA
:100460000C00006633000000600C000066330000E2
:100470000060330000004E000A3E02FF67014A00A0
:10048000664E000A664200004242424E00094E009B
:100490000A080066FC52002053006EFE2E0000DEAB
:1004A000000200FF488E60FB10000200006733006E
:1004B0000000603300000030000C0000662000E304
:1004C00022303300004210000200006708000C00D8
:1004D0006F080006000C0000663A3300003300008D
:1004E000E00200008233000002000020E7860000E6
:1004F000003300004E4E0009421000060033000099
:100500004E000A3000000800664E421E00E252BE55
:10051000004E4242424E00094210000600330000E5
:100520004E000A4E3000910032D2004236004A009E
:10053000673600B26D240000423100D400B4006D73
:100540004252003100E1D10031000060FC33000074
:100550000022004F330000005366300000300000DE
:1005600033EE0020420000420000603000000C002A
:1005700066420000E0E142000033EE0020600C0023
:10058000664200003000000200320000E1803300CB
:100590002033000000420000330000003300000060
:1005A000203000204E3300000022001A33000000EB
:1005B000536630000033EE0020420000420000602D
:1005C0003000000C006642000033000000200200F2
:1005D000002060FF1000020000674A006642000031
:1005E0004E1000020000674200004E330000B800C9
:1005F00000674E000B0C0000663300000060330003
:1006000000004E000B3E0200674A0066FD60FD429E
:100610000000523300004E000BE30C0000660600A1
:10062000600C00006606006006003300004E000B00
:100630003E020067FD4A0066FC4E000A66FC42006E
:10064000004E000B330000004E000B4200003E0243
:100650000067F960FC004EFF2D0020FF4E000D4AA0
:10066000664E000F4A6620FF30004232D22F2F0024
:1006700000424E000FDE002E00FF4E00004E4E4E98
:10068000FF4800FF33000099420C009C6C52603D13
:100690000099FF4C00FF4E4E4EFF4800FF3D009971
:1006A000FF30FF02000C00667060004E000E4A67CB
:1006B000706000423D0099FF0800FF66706008000E
:1006C000FF6660536670606033000099424E000D13
:1006D00058702F4E000D58423D0099FF0800FF66EC
:1006E00070600800FF666053667060604E000E4ADE
:1006F000677060424C00FF4E4E4EFF4800FF020004
:100700000000420C00386E3C00993048020000B0F6
:10071000006642605260704C00FF4E4E4EFF3D003E
:10072000FF42FF330000992F00034E000F58424E46
:10073000000D5842FF2D0024FF0C0000FF6C20FF2D
:1007400030FF54FF52FF6042FF2D0024FF0C0000D9
:10075000FF6C424E000D584A66423000990200007C
:1007600020FF3054FF33FF0099702F4E000F583395
:10077000FF009952FF602D0024FF20FF3DFF54FF32
:1007800020FF3DFF30FF480200006630FF480200B6
:1007900000677060424E4E4E00200053004A664E85
:1007A0004E4EFF4820FF702F2F00202F00004E00DC
:1007B0000FDE004A6770603A202D0020FF422E0CA9
:1007C00000016CDC52600CFFFF6620FF0C55566781
:1007D0007060424C20FF4E4E4EFF4800FF4A0067BB
:1007E000423C00990800667060000800666053662D
:1007F0007060006033000099424E000D58702F4E1B
:10080000000D582D00FF200053004A6700420042AF
:100810003C0099080066600800664E000E70600893
:1008200000664A00663C0099520053667060604260
:100830000C00016C423C009908006660080066608C
:10084000536670606020FF30009954FF526060FF73
:10085000424C00FF4E4E4023747064766331360084
:100860000000000000000000000000000000000088
:100870000000000000000000000000000000000078
:100880000000000000000000000000000000000068
:100890000000000000000000000000000000000058
:101FF000000000000000000000000000000000FFE2
:00000001FF
